:020000040800F2
:10000000D032002005010008AF350008F7310008A4
:10001000AD350008A10F0008613E00080000000097
:10002000000000000000000000000000D9360008B9
:100030000D10000800000000B1350008DD36000892
:100040001F0100081F0100081F0100081F01000810
:100050001F0100081F0100081F0100081F01000800
:100060000F100008151000081F010008A50F000858
:100070001F010008B10F0008BD0F0008C90F0008DC
:100080001F010008D50F00081F0100081F0100080C
:100090001F0100081F0100081F0100081F010008C0
:1000A0001F0100081F0100081F0100081F010008B0
:1000B0001F0100081F0100081F0100081F010008A0
:1000C0001F0100081F0100081F0100081F01000890
:1000D0001F0100083D3E0008493E0008553E00084B
:1000E0001F0100081F0100081F010008DFF810D0E1
:1000F00000F06CFC0048004785510008AFF3008019
:10010000D03200200648804706480047FEE7FEE759
:10011000FEE7FEE7FEE7FEE7FEE7FEE7FEE7FEE7B7
:1001200071370008ED000008202A04DB203A21FA8C
:1001300002F00021704721FA02F3D040C2F1200200
:10014000914008431946704710B5431A934209D2AB
:100150008318881803E010F8011D03F8011D521ED2
:10016000F9D210BD40EA01039B0703D009E008C99A
:10017000121F08C0042AFAD203E011F8013B00F86C
:10018000013B521EF9D210BDD2B201E000F8012BA2
:10019000491EFBD270470022F6E710B513460A4607
:1001A00004461946FFF7F0FF204610BD30B504465F
:1001B0000020034600E05B1C934203D2E05CCD5C70
:1001C000401BF8D030BDF0B480EA0102D40F4200E9
:1001D000B2EB410F02D20246084611464A0042D015
:1001E000C30DDDB2C1F3C752AD1A202D35DAC1F30C
:1001F000160141F4000204B15242C5F1200602FA90
:1002000006F12A411044B3EBD05F23D0C4B1012DD5
:10021000A0EBC35009DCF0BC4FF0004202EAC3522D
:10022000DBB200F5000000F0A7BA400000F18070DA
:1002300000EBC350A0F1807040EAD170490009E0A2
:10024000490841EAC071A0EBC35000F50000400826
:1002500000EBC350F0BC00F086BA6142012202EB11
:100260004101001BF6E7F0BC704781F00041AAE7AE
:1002700080F00040A7E780EA010210B502F00043D9
:10028000400022D04A001FD0010E01EB1261C0F3E2
:100290005600C2F3560240F4000042F40002A0FBF4
:1002A000022000047F39140400D0401C50EA1240A0
:1002B00001D44000491EC2B20C0604EBD010401C11
:1002C0004008802A02D003E0002010BD20F0010089
:1002D000002900DA0020184310BD30B480EA010282
:1002E00002F0004530F0004221F0004013D090B100
:1002F000C30DD40DC2F31601C0F31600E41A41F485
:10030000000140F400027D34914201D3641C00E0FE
:100310004900002C02DA30BC002070474FF4000086
:100320000023914201D3891A034340084FEA410157
:10033000F7D151B1914202D14FF0004105E002D214
:100340004FF0010101E06FF0010103EBC4502844BC
:1003500030BC00F008BA2DE9FE4F804681EA030068
:10036000C00F0C46009021F0004123F00045B8EB8F
:100370000200A94105D24046214690461C460B4644
:10038000024623F00040104347D0270DC7F30A0070
:10039000C3F30A510290401A019040286BDAC3F36C
:1003A000130040F4801B0098924620B10023D2EB4A
:1003B000030A63EB0B0B01985946C0F1400250460B
:1003C00000F0B0F906460D4650465946019A00F035
:1003D000B8F910EB08006141002487EA115284EA61
:1003E000E7731A4340D0009A62B3019A012A4FEA98
:1003F000075215DC001B61EB02014FF0004202EADC
:100400000752CDE90042001C41F5801132462B46CF
:1004100000F01EFA03B0BDE8F08F40462146F9E730
:10042000001B61EB0201001C41F5801300185B41C9
:100430002018A2F5001747EB030140EAD570B61962
:100440006D4111E06D084FEA360645EAC0754FEA86
:100450000752001B61EB0201001C41F580114908A5
:100460004FEA30000019514132462B4603B0BDE837
:10047000F04F00F0DEB90098012240000023D0EBDD
:10048000020263EBE073009821464FEAE074B8EB98
:10049000000061EB0401E9E783F000435BE781F0D2
:1004A000004158E72DE9FE4F81EA030404F00044BF
:1004B00021F0004100944FF0000B23F0004350EA7C
:1004C00001045ED052EA03045BD0C3F30A54C1F3C3
:1004D0000A552C44A4F2F3340194A0FB0254C1F356
:1004E000130141F48011C3F3130343F4801301FBA0
:1004F000024400FB034E840A970A44EA815447EA07
:100500008357A4FB076802958D0A05FB07854FEA10
:10051000932C04FB0C542705029D4FEA065847EA2A
:100520001637B5EB08056EEB070C870E920E47EAFF
:10053000811742EA8312A7FB0201B6EB0B0164EBC1
:1005400000042B0D43EA0C335E1844EB1C50DA46D2
:100550005146E7FB0201C5F313044FEA0B3343EAAC
:1005600014534FEA0432019C43EA0603A4F10C043D
:100570000294009CCDE900B400F06AF903B0BDE834
:10058000F08F00200146F9E7002801DBC0F10040B0
:10059000002901DBC1F10041814201D801207047EF
:1005A00000207047002801DBC0F10040002901DB7A
:1005B000C1F10041814201D2012070470020704703
:1005C000002801DBC0F10040002901DBC1F100413E
:1005D000814201D30120704700207047002801DBD1
:1005E000C0F10040002901DBC1F10041814201D985
:1005F0000120704700207047C10F80EAE070084476
:10060000CA079623002100F0B7B8962300221146AE
:1006100000F0B2B800F0004220F00040C10DC0F37D
:10062000160040F400007F2901DA00207047962967
:1006300003DCC1F19601C84001E096398840002AE8
:10064000F4D04042704720F00040C10DC0F31600C6
:1006500040F400007F2901DA00207047962903DC6E
:10066000C1F19601C840704796398840704700F044
:10067000004230F000400AD0C10D01F56071C0F3B6
:10068000160042EA0151C20840071143704700209A
:100690000146704730B5041E71F1000404DB4FF0D1
:1006A0000044404264EB0101141E73F1000405DBB9
:1006B0001C464FF00043524263EB04038B4208BFD9
:1006C000824230BD01F0004330B421F0004150EAD5
:1006D000010206D00A0DA2F56072C1F31301002ACF
:1006E00002DC30BC00207047440F44EAC104C10062
:1006F000E01830BC00EBC25000F035B8002801DB38
:10070000C0F10040002901DBC1F100418142704786
:10071000002801DBC0F10040002901DBC1F10041EC
:1007200088427047202A04DB203A00FA02F10020B8
:1007300070479140C2F1200320FA03F3194390401F
:100740007047202A06DBCB17203A41FA02F043EA31
:10075000E07306E041FA02F3D040C2F1200291407A
:100760000843194670470029A8BF7047401C49003C
:1007700008BF20F00100704710B4B0FA80FC00FA06
:100780000CF050EA010404BF10BC704749B1CCF131
:10079000200421FA04F411FA0CF118BF01212143BD
:1007A0000843A3EB0C01CB1D4FEA00614FEA102078
:1007B00042BF002010BC704700EBC350104400291A
:1007C000A4BF10BC7047401C490008BF20F00100C6
:1007D00010BC7047F0B4002802DCF0BC0020704769
:1007E000C0F3C751C0F3160040F40000CA0701D19E
:1007F0004000491E3F2202EB6105002211464FF4E2
:10080000000626FA01F31344D418844201D8001BD1
:100810001A464000491C1729F3DD5100814202D2DB
:100820004FF0FF3100E0002102EBC550F0BCFFF7B4
:100830009ABF10B5141E73F1000408DA401C41F190
:10084000000192185B411A4301D120F0010010BD54
:100850002DE9F04D92469B4611B1B1FA81F202E0CA
:10086000B0FA80F220329046FFF75CFF04460F4654
:1008700040EA0A0041EA0B0153465A46084313D0A6
:10088000114653EA010019D0C8F140025046FFF763
:100890004BFC05460E46504659464246FFF742FF7E
:1008A000084305D0012004E020463946BDE8F08D1C
:1008B0000020054346EAE0762C4337430A98630557
:1008C000E40AA0EB08000022FD0A44EA47540A307B
:1008D00002D500200146E9E7010510196941DDE96B
:1008E000084500196941BDE8F04DA2E72DE9F04D3A
:1008F00081EA030404F0004B21F0004514464FF058
:10090000000A23F0004150EA050220D054EA010217
:100910001DD0C5F30A570246C5F31303C1F31300F4
:10092000C1F30A5640F4801543F48013A7EB060880
:10093000101BD64608F2FD3873EB050002D308F110
:10094000010801E092185B41B8F1000F03DA0020C2
:100950000146BDE8F08D00204FF480110646844624
:100960000EE0171B73EB050705D3121B63EB0503A2
:1009700006434CEA010C49084FEA300092185B41EB
:1009800050EA0107EDD152EA030012D082EA0400D6
:1009900083EA0501084305D0101BAB4106D20122B2
:1009A000002306E000224FF0004302E06FF0010256
:1009B00053101AEB06004CEB085110EB0A0041EB08
:1009C0000B01BDE8F04DFFF734BF0000064C074DAA
:1009D00006E0E06840F0010394E80700984710340F
:1009E000AC42F6D3FFF786FBC06C0008E06C000851
:1009F00070B521F0004303430CD0C1F30A55002425
:100A0000D5EB040564EB0403D617AD1AB34102DB42
:100A10000020014670BD201841EB025170BD0EB59B
:100A2000C10F80EAE0700844CA07002140F2334356
:100A30008DE80E000A460B46FFF70AFF03B000BD23
:100A40000EB540F2334102910021CDE900110A4672
:100A50000B46FFF7FDFE03B000BD70B5C1F30A52AF
:100A600001F000450024C1F3130140F2FF3341F4CB
:100A700080119A4201DA002070BD40F233439A425D
:100A8000A2F2334203DC5242FFF74EFB00E09040FB
:100A90002C43F1D0404270BD2DE9F04F8BB0804621
:100AA0004068D8F808500146FFF7E5FB064628469F
:100AB0002946FFF7E0FB01463046FFF784FB05F0CF
:100AC000A7FCFFF7D4FD0646D8F800000F4600F05B
:100AD000B7F9FFF7CCFD04F01BF94BF23335C4F244
:100AE00031054FF080422B46FFF7DCFC02460B46F7
:100AF00030463946FFF7D0FCFFF7E4FDD8F80C206C
:100B00004FF2C351D8F800608246CCF2380110464B
:100B1000FFF759FBFFF7ABFD074630460C4600F0E8
:100B20008FF9FFF7A4FD05F023FC4FF080422B4620
:100B3000FFF7B8FC02460B4638462146FFF7ACFCEF
:100B4000FFF7C0FDD8E9014181460846FFF78FFD58
:100B5000054620460E46FFF78AFD02460B4628460C
:100B6000314603F0FFFDFFF7ADFD039000F0FEF806
:100B70000446049050465146FFF77DFB0546484623
:100B80004946FFF778FB01462846FFF71CFB49F270
:100B9000DF11CCF2D921FFF716FB46F68431CCF2F7
:100BA0009E21FFF710FB4AF26C71C4F23931FFF756
:100BB00094FB4FF07E510546FFF710FD08B1022669
:100BC000CAE0284629460194FFF755FB01464FF03D
:100BD0007E50FFF74AFB05F01BFC80F00040FFF75A
:100BE00046FD064628460C46FFF741FD02460B46E9
:100BF0003046214603F0B6FDFFF764FD044607903A
:100C000000F0B4F8029008902046FFF730FD05464A
:100C10000E4604F07DF84CF6CC4BC4F2210B4FF09D
:100C200040425B46FFF73EFC4DF62943C4F22403E5
:100C30000022FFF790FBFFF745FD044628463146AA
:100C400005F096FB4FF040425B46FFF72BFCFFF7A9
:100C500039FD05462046FFF70AFD044628460E46A4
:100C6000FFF705FD02460B462046314603F07AFDAC
:100C7000044650460D46FFF7FAFC064648460F4626
:100C8000FFF7F5FC02460B463046394603F06AFD95
:100C900002460B462046029C2946FFF7FDFBFFF764
:100CA00011FD059000F062F80746D8F800003946BB
:100CB0000697FFF7DAFA2146FFF7D7FA05460A90BA
:100CC00000F0BEF800210990C4F2B4212846FFF7D5
:100CD00077FC00284FF002063ED10021C4F2B42177
:100CE0002046FFF76DFCB8BB0021CCF2B4212046B2
:100CF000FFF74AFC80BB0021C4F234313846FFF7CD
:100D00005FFC48BB019C0021CCF2B4212046FFF7D8
:100D10003BFC08BB0021C4F2B4212046FFF750FC85
:100D2000D0B938460021FFF72FFCA8B90021CCF23A
:100D3000B4212846FFF728FC70B903A908F1080080
:100D40000439042251F8083F013A51F8047C40F874
:100D5000087F4360F6D1012630460BB0BDE8F08F26
:100D600080B53021FFF717FA80BD000080B5002163
:100D7000C4F23431FFF77FFA40F6DA71C4F2490168
:100D8000FFF7ABFA80BD00002DE9F0470F6804467D
:100D9000476048689946A06088681946E060104638
:100DA0001746FFF71BFC4FF07E5A00281CBF40F28D
:100DB000000ACBF6807A504600212760FFF70EFC30
:100DC000804638464946FFF7EDFB05460028384681
:100DD000494618BF0125FFF7F3FB0746002818BF57
:100DE0000127B8F1000F18BF2F46012F24D100BFF3
:100DF0002046FFF751FE01281ED050460021FFF784
:100E0000EDFB216805465046FFF7DDF949460746E8
:100E10002060FFF7C7FB064600283846494618BF42
:100E20000126FFF7CDFB0746002818BF0127002D3C
:100E300018BF3746002FDBD13846BDE8F0870000E9
:100E400080B540F6DA71C4F24901FFF714FA0021C7
:100E5000C4F23431FFF741FA80BD70B50446206812
:100E60008168C943C90716D1816821F001018160F9
:100E700000F018FE054609E000F014FE401B0228B1
:100E800004D920688068C043C00706D02068806805
:100E9000C043C007F0D0002070BDA06A40F0100031
:100EA000A062E06A40F00100E062012070BD10B570
:100EB0000146486A826A12F0500F05D0006A026B40
:100EC000BDE8104008461047816A41F40071816214
:100ED00001688968C1F3424107290CD1017B51B9EE
:100EE000816A21F480718162816AC90403D4816AB4
:100EF00041F00101816200F091F910BD10B5406A26
:100F0000816A41F040018162C16A41F00401C1621D
:100F100000F086F910BD10B5406A00F080F910BDF0
:100F2000F8B504460026009620688168C943C907C1
:100F30002FD0816841F0010181601748174900688E
:100F4000B0FBF1F0009002E00098401E0090009885
:100F50000028F9D100F0A6FD054615E000F0A2FD3D
:100F6000401B022810D920688068C043C0070BD0FE
:100F7000A06A40F01000A062E06A40F00100E06268
:100F800084F824600120F8BD20688068C043C00751
:100F9000E4D10020F8BD00001800002040420F00FE
:100FA000FEE70000014800F037BB00008C00002085
:100FB000014800F031BB0000F8030020014800F0B8
:100FC0002BBB0000B4030020014800F025BB00004B
:100FD00070030020014800F01FBB00002401002026
:100FE00030B590F840500124AC40C56B6C6004688B
:100FF00063604368102B04D0036899600068C26086
:1010000030BD03689A600068C16030BD704704203D
:1010100000F036BC082000F033BC72B6FEE70000DA
:10102000F8B504460026009694F8240001280CD058
:10103000012084F824002046FFF70FFF2046FFF729
:101040006FFF0746380002D05DE00220F8BDA06ABD
:1010500020F4885040F00200A062022000F0D4FE8C
:101060002B490968B1FBF0F04000009002E00098C5
:10107000401E009000980028F9D12068816841F056
:101080000801816000F00EFD054612E000F00AFD47
:10109000401B0A280DD920688068000709D5A06A7E
:1010A00020F0020040F01000A06284F824600120CB
:1010B000F8BD206880680007E8D42068816841F0A6
:1010C0000401816000F0EEFC054612E000F0EAFC4D
:1010D000401B0A280DD920688068400709D5A06AFE
:1010E00020F0020040F01000A06284F8246001208B
:1010F000F8BD206880684007E8D4A06A20F00200AC
:1011000040F00100A06284F824603846F8BD000079
:1011100018000020F8B500230025009590F8242041
:10112000012A12D0012280F824204A681F26072AAB
:101130000DD20468676B521E02EB82029640B743E1
:101140000E689640374367631AE00220F8BD0D2A07
:101150000BD20468276BD21F02EB82029640B74382
:101160000E689640374327630AE00468E76A0D3A41
:1011700002EB82029640B7430E6896403743E7621F
:101180000A6807260A2A0BD30468E7680A3A02EBC2
:1011900042029640B7438E6896403743E76009E0C5
:1011A0000468276902EB42029640B7438E68964076
:1011B000374327610A68102A01D0112A23D1144C21
:1011C0000268A2421AD1946824021CD4946844F4A0
:1011D000000494600968102915D10E490E4A096867
:1011E000B1FBF2F101EB81014900009102E00099AD
:1011F000491E009100990029F9D104E0816A41F06B
:1012000020018162012380F824501846F8BD0000B7
:10121000002401401800002040420F007047704732
:10122000704700002DE9F041044600270025002CFE
:1012300003D0A06A002618B108E00120BDE8F081C3
:10124000E66284F82460204600F078F82046FFF734
:1012500004FEA16AC90600D428B1A06A40F01000BB
:10126000A0620120EAE7A16A21F4885141F002015D
:10127000A1626268E169237B0A4347EA43010A43AA
:10128000A1684FF48077B94208D0012906D0002127
:1012900094F814C0BCF1010F02D00AE03946F7E718
:1012A000F3B1A36A43F02003A362E36A43F00103AE
:1012B000E3622368D3F804C02CF4694C4CEA010CB7
:1012C000C3F804C021688B68DFF868C003EA0C0328
:1012D00013438B60A168B94209D0012907D009E006
:1012E000A3695B1E41EA433141F40061E1E7218AD1
:1012F000491E0D052168CB6A23F470032B43CB6292
:10130000216889680C4B1940914207D1E662A16AB5
:1013100021F0020141F00101A1628FE7A06A20F0F3
:10132000020040F01000A062E06A40F00100E062BC
:10133000012083E7FDF7E1FFFE0E1FFF70B586B0C9
:101340000646002402940394049405941A493068D4
:1013500088422ED11949886940F4007088618869F3
:1013600000F400700190886940F01000886188697D
:1013700000F010000190082002900320039002A9C1
:101380000F4800F089FA104D0E4828606C60AC6080
:101390008020E86040002861800068612020A8610A
:1013A000EC61284600F0ECF908B1FFF736FE356233
:1013B0006E6206B070BD00000024014000100240C3
:1013C00000100140080002408C0000202DE9F04789
:1013D000044689469246DFF8008120683F4F08F1B5
:1013E0000406404501D0B84207D1306810F4702F90
:1013F00003D001252846BDE8F08794F82400012891
:101400000BD0012084F824002046FFF789FD054613
:10141000002125B184F82410ECE70220EBE7A06A54
:1014200040F60162904340F48070A0622068B842A8
:1014300018D1326812F4702F14D0A26A42F48012CC
:10144000A2623068400505D5A06A20F4005040F43F
:101450008050A062A06AC00412D5E06A20F00600A5
:10146000E0620EE0A26A22F48012A26240684005A7
:10147000F0D5A06A20F4005040F48050A062E9E763
:10148000E16284F82410216A15488862216A1548AF
:10149000C862216A1448086321686FF0020008607E
:1014A0002068816841F480718160216853464C3125
:1014B0004A46206A00F096F920688168C1F34241EB
:1014C000072904D0816841F48011816092E7816826
:1014D00041F4A00181608DE7002401400028014013
:1014E000AF0E0008170F0008FD0E000810B50446E7
:1014F000002C02D0607910B106E0012010BD002060
:101500002071204600F004F801206071002010BD19
:1015100008B500680649884208D10648416941F08B
:1015200040014161406900F04000009008BD0000AA
:10153000003002400010024010B590F82110002247
:10154000022905D00421816380F82020012010BDEC
:1015500001680B6823F00E030B6001680B6823F031
:1015600001030B6090F84030C46B012101FA03F3D2
:10157000636080F8211080F82020104610BD000024
:1015800010B5002490F82110022903D004218163B2
:1015900001243DE001680A6822F00E020A60016839
:1015A0000A6822F001020A601A4A0168914201D1D8
:1015B000012121E0174A1432914201D110211BE090
:1015C000144A2832914201D1891515E0114A3C3262
:1015D000914201D189140FE00E4A5032914202D15A
:1015E0004FF4803108E00B4A6432914202D14FF44B
:1015F000801101E04FF08071064A083A51600121E4
:1016000080F82110002180F82010416B01B188473B
:10161000204610BD080002402DE9F05FC16B0A684A
:1016200001680B68046C4FF0040A0AFA04FA4E4D84
:101630004E4E4F4FDFF83CC1DFF83C81DFF83C9164
:101640001AEA020F31D05FEA437A2ED50A68920671
:1016500003D40A6822F004020A600168A94201D199
:10166000042119E0B14201D1402115E0B94202D173
:101670004FF4806110E0614502D14FF480410BE0EE
:10168000414502D14FF4802106E0494502D14FF493
:10169000800101E04FF08061334A083A5160C16A2D
:1016A00000295FD0BDE8F05F08474FF0020E0EFA48
:1016B00004FE1EEA020F4FF0000A4FF0010B35D076
:1016C0005FEA837E32D50A68920605D40A6822F062
:1016D0000A020A6080F821B00168A94201D1022102
:1016E00019E0B14201D1202115E0B94202D14FF4F5
:1016F000007110E0614502D14FF400510BE041450B
:1017000002D14FF4003106E0494502D14FF40011F7
:1017100001E04FF00071144A083A516080F820A0AF
:10172000816A00291ED0BDE8F05F08470825A54062
:10173000154217D01A0715D50A6822F00E020A6062
:1017400090F84010C26B0BFA01F15160C0F838B04C
:1017500080F821B080F820A0016B002902D0BDE8FC
:10176000F05F0847BDE8F09F080002401C000240FF
:101770003000024044000240580002406C00024029
:1017800030B5002827D0001D144A50F8041C14233B
:101790000A44B2FBF3F29200C263114A826302224E
:1017A00042770A6843F6F0739A43D0E90034234342
:1017B000D0E902452C43234304692343446923436E
:1017C0008469234313430B60002141630122427764
:1017D0000177002030BD012030BD0000F8FFFDBFC3
:1017E0000000024070B50446002594F8200001284E
:1017F0000CD0012084F8200094F821600020012EF4
:1018000006D084F820000225284670BD022070BD55
:10181000022684F82160A0632068066826F001068D
:1018200006602046FFF7DCFBE06A28B1206801680B
:1018300041F00E01016009E02068016821F0040117
:1018400001602068016841F00A01016020680168B8
:1018500041F001010160D7E770B5044600F022F9BC
:101860000546601C02D004480078044400F01AF9D0
:10187000401BA042FAD370BD0C000020704700004E
:1018800010B504490A68024202D00860FFF7F6FF6B
:1018900010BD0000140401402DE9F84F002400237E
:1018A000DFF8C4914FF00F08A9F1040B09F1040A05
:1018B000ABF1040ED1E00127A7403A40BA4275D1FE
:1018C000DFF8A8C14D68A5EB0C0665452BD00DDCF3
:1018D000032D34D005DC35B3012D19D0022D2FD1C5
:1018E0001BE0112D16D0122D2AD119E0B6F5881F54
:1018F00019D006DCB6F5803F15D0B6F5801F1FD194
:1019000011E0B6F5001F0ED0B6F5041F18D10AE09D
:10191000CB6815E0CB681B1D12E0CB6808330FE0E5
:10192000CB680C330CE08B6823B1012B04D0082367
:10193000476105E0042303E00823076100E000237A
:10194000FF2A01D8054601E000F1040502D84FEA5C
:10195000840603E0A4F108064FEA86062F6808FA19
:1019600006FC27EA0C0703FA06F647EA06072F608B
:101970004D68ED0070D53E4DAE6946F00106AE6192
:10198000AD6905F0010500953A4D24F0030677197D
:10199000BE68A5072D0F08FA05FC26EA0C06DFF83D
:1019A000D8C0604503D14FF0000C17E054E0DFF8D9
:1019B000CCC0604502D14FF0010C0FE0DFF8C0C091
:1019C000604502D14FF0020C08E0DFF8B8C0604576
:1019D00002D14FF0030C01E04FF0040C0CFA05FCAF
:1019E0004CEA060CC7F808C04D68ED0205D5D9F8D9
:1019F00000501543C9F8005004E0D9F80050954351
:101A0000C9F800504D68AD0205D5DAF8005015430D
:101A1000CAF8005004E0DAF800509543CAF80050C4
:101A20004D68AD0305D5DBF800501543CBF80050E9
:101A300004E0DBF800509543CBF800504D68ED030F
:101A400005D5DEF800501543CEF8005004E0DEF86E
:101A500000509543CEF80050641C0A6832FA04F531
:101A60007FF429AFBDE8F88F080401400000111091
:101A7000001002400000014000080140000C01403D
:101A800000100140001401408068084201D001208C
:101A9000704700207047002A01D001617047090497
:101AA0000161704701488068704700000C00002009
:101AB00070B50446002C04D094F83D00002510B108
:101AC00006E0012070BD84F83C50204600F0BCF8D0
:101AD000242084F83D002068016821F001010160A4
:101AE0002068016841F4004101602068016821F428
:101AF0000041016000F014FB4F4B6168994203D82C
:101B00004E49884203D304E04D49884201D2012066
:101B100070BD4C49B0FBF1F12268566826F03F06D3
:101B20000E43566062689A4201D8491C07E04FF4A0
:101B3000967251434FF47A72B1FBF2F1491C22685C
:101B4000166A26F03F06314311626168994210D847
:101B50004900401EB0FBF1F2521CC2F30B02042AF2
:101B600001D2042022E0B0FBF1F0401CC0F30B00D6
:101B70001CE0A268F2B301EBC10303EB0116431EA4
:101B8000B3FBF6F35B1C43F480431B0549D092B3CF
:101B900001EBC10202EB0111401EB0FBF1F0401C51
:101BA000C0F30B0040F4804040F400402168CA6953
:101BB0004CF6FF739A431043C861D4E90710014300
:101BC0002068026822F0C00211430160D4E90301D9
:101BD00001432068826848F2FF339A4311438160D1
:101BE000D4E9051001432068C26822F0FF021143C6
:101BF000C16001E00EE016E02068016841F00101DB
:101C000001602564202084F83D00256384F83E505F
:101C1000002070BD01EB4106431EB3FBF6F35B1CD5
:101C2000B3E70120C2E701EB4101401EB0FBF1F038
:101C3000401CC0F30B00B7E7A086010080841E00A3
:101C400000093D0040420F0070B586B006460024F2
:101C500002940394049405941949306888422DD164
:101C6000184DA86940F00800A861A86900F00800B4
:101C70000190C0200290122003900320059002A939
:101C80001148FFF709FEE86940F40010E861E869CF
:101C900000F4001001900E4D0C4828606C60AC60A0
:101CA0008020E8602C616C61AC61EC612846FFF734
:101CB00067FD08B1FFF7B1F9B5636E6206B070BD9C
:101CC0000054004000100240000C0140800002401F
:101CD0002401002002488168027811448160704725
:101CE0000C00002010B50748016841F010010160A8
:101CF000032000F077F80F2000F006F800F026F837
:101D0000002010BD0020024070B504460D4D4FF478
:101D10007A712878B1FBF0F00B490968B1FBF0F05B
:101D200000F099FD08B1012070BD102C07D20022EF
:101D30002146501E00F036F86C60002070BD012076
:101D400070BD00000C0000201800002008B50C48F1
:101D5000816941F001018161816901F00101009116
:101D6000C16941F08051C161C06900F080500090AC
:101D70000449486820F0E06040F00070486008BD09
:101D80000010024000000140002809DB00F01F02A3
:101D9000012191404009800000F1E020C0F80011CD
:101DA00070470000F0B40D460D4B1B68C3F30223CF
:101DB000C3F10704042C00D90424191D072901D2FA
:101DC000002300E0DB1E012606FA04F1491E29402B
:101DD00099409E40761E16403143F0BC02F055B843
:101DE0000CED00E000F00701054A10684FF6FF0314
:101DF000184040EA01200349084310607047000082
:101E00000CED00E00000FA0510B501460020244C5E
:101E1000012922D0022938D010291DD161682268F9
:101E2000D20119D51F48C1F38342805CC9030AD58A
:101E300061681C4AC1F34041921E515C1A4AB2FBD0
:101E4000F1F1484301E0194948436168490203D46C
:101E500040000321B0FBF1F010BD226AC2F3012162
:101E6000012903D1920701D5C80310BD022905D16C
:101E7000626A920702D549F6404010BD0329FCD1A1
:101E800021688903F9D50A4810BD00F059F9616845
:101E9000C1F38131491C4900B0FBF1F010BD0000D5
:101EA00000100240C86700080024F40000093D004B
:101EB00048E801002DE9F8430446DFF8F88020786F
:101EC000C0075FD00027D8F81C00C0000BD4D8F89A
:101ED0001C0040F08050C8F81C00D8F81C0000F02E
:101EE000805000900127344D2868C00512D428681E
:101EF00040F480702860FFF7D5FD064607E0FFF745
:101F0000D1FD801B642802D90320BDE8F88328682E
:101F1000C005F4D5D8F8200000F4407010B3A188B3
:101F200001F4407181421DD0D8F8200020F44070A7
:101F3000224901220A6000220A60C8F82000C00776
:101F400010D0FFF7AFFD054641F2883606E0FFF7F7
:101F5000A9FD401BB04201D90320D6E7D8F82000E4
:101F60008007F4D5D8F82000616820F44070084359
:101F7000C8F82000012F05D1D8F81C0020F08050AF
:101F8000C8F81C002078800707D5D8F80400A1689D
:101F900020F440400843C8F804002078C00607D564
:101FA000D8F80400E16820F480000843C8F8040071
:101FB0000020AAE7001002400070004040044242A6
:101FC0002DE9F04704460D46002C17D0DFF830818C
:101FD000D8F8000000F00700A84211D2D8F800009D
:101FE00020F007002843C8F80000D8F8000000F0EF
:101FF0000700A84204D00120BDE8F0870120FBE7DC
:102000002068404E810712D5400703D5706840F420
:10201000E06070602078000703D5706840F460507D
:1020200070607068A16820F0F0000843706020784C
:10203000C0072CD06068012806D0022809D031687A
:1020400089070BD40120D7E73168890306D4012022
:10205000D2E73168890101D40120CDE7716821F010
:10206000030101437160FFF71DFD074641F2883906
:1020700006E0FFF717FDC01B484501D90320BBE769
:102080007068616800F00C00B0EB810FF1D1D8F8F6
:10209000000000F00700A8420ED9D8F8000020F098
:1020A00007002843C8F80000D8F8000000F0070037
:1020B000A84201D001209FE72078400705D570682D
:1020C000E16820F4E060084370602078000706D5DE
:1020D0007068216920F4605040EAC100706000F02F
:1020E0003FF87168084AC1F30311515CC8400749C1
:1020F000086007480068FFF707FE00207CE7000043
:102100000020024000100240D8670008180000209C
:1021100010000020014800687047000018000020EF
:1021200000B5FFF7F7FF04494968044AC1F30221EB
:10213000515CC84000BD000000100240E867000884
:1021400000B5FFF7E7FF04494968044AC1F3C2211B
:10215000515CC84000BD000000100240E867000864
:102160000F4A516801F00C00042803D0082803D05E
:102170000C4870470C4870470C48C1F38343C05C5F
:10218000C9030AD55168094AC1F34041921E515C06
:10219000054A5043B0FBF1F070470549484370478A
:1021A0000010024000127A000024F400B667000814
:1021B00000093D002DE9F84F0446002C0ED0207890
:1021C000D94DC0075ED06868C0F3810001280BD0EC
:1021D0006868C0F38100022803D00CE00120BDE84C
:1021E000F88F6868C00306D5286880034AD5606800
:1021F000A8BB0120F3E76068B0F5803F11D0A8B11B
:10220000B0F5A02F1BD0286820F480302860286803
:1022100020F480202860606830B3FFF743FC064656
:102220001EE0286840F480302860F4E7286820F435
:1022300080302860286820F480202860EBE7286838
:1022400040F480202860286840F480302860E2E76D
:10225000FFF728FC801B642802D90320BFE711E0A8
:1022600028688003F4D50DE0FFF71CFC064606E065
:10227000FFF718FC801B642801D90320AFE728680A
:102280008003F5D42078DFF8A48280074FF0010A9C
:102290004FF0000945D5686810F00C0F07D068684A
:1022A000C0F38100022812D16868C0030FD42868E7
:1022B000800704D52069012801D001208FE7286814
:1022C000616920F0F80040EAC100286029E0206937
:1022D000B8B1C8F800A0FFF7E5FB064606E0FFF737
:1022E000E1FB801B022801D9032078E728688007DA
:1022F000F5D52868616920F0F80040EAC10028603F
:102300000FE0C8F80090FFF7CDFB064606E0FFF7A8
:10231000C9FB801B022801D9032060E728688007D9
:10232000F5D42078000726D58148A16999B1C0F875
:1023300000A0FFF7B7FB064606E0FFF7B3FB801BE4
:10234000022801D903204AE7686A8007F5D50120F1
:1023500001F030F90FE0C0F80090FFF7A3FB06464C
:1023600006E0FFF79FFB801B022801D9032036E718
:10237000686A8007F5D42078400773D50026E8699D
:10238000C00008D4E86940F08050E861E86900F0D6
:10239000805000900126DFF89CB1DBF80000C005FA
:1023A00014D4DBF8000040F48070CBF80000FFF795
:1023B00079FB074606E0FFF775FBC01B642801D9CF
:1023C00003200CE7DBF80000C005F4D5E068012825
:1023D00012D0B0B105281DD0286A20F00100286273
:1023E000286A20F004002862E06841F2883B28B3A4
:1023F000FFF758FB07461DE0286A40F001002862FD
:10240000F2E7286A20F001002862286A20F0040020
:102410002862E9E7286A40F004002862286A40F050
:1024200001002862E0E7FFF73DFBC01B584501D9DA
:102430000320D4E6286A8007F5D50DE0FFF732FBCC
:10244000074606E0FFF72EFBC01B584501D90320C5
:10245000C5E6286A8007F5D4012E03D1E86920F08B
:102460008050E861E069A0B36968C1F38101022985
:1024700046D0022805D0C8F86090FFF713FB044649
:102480003AE0C8F86090FFF70DFB064606E0FFF75C
:1024900009FB801B022801D90320A0E628688001DF
:1024A000F5D4206AB0F5803F05D16868A16820F4B2
:1024B000003008436860D4E908010843696821F4E2
:1024C000741108436860C8F860A0FFF7EBFA04468F
:1024D00007E026E0FFF7E6FA001B022801D90320F7
:1024E0007DE628688001F5D51BE0FFF7DBFA001BCD
:1024F000022801D9032072E628688001F5D410E093
:1025000001280CD06868226A00F48031914204D11D
:10251000616A00F47010884203D001205FE6012058
:102520005DE600205BE60000001002400000424231
:10253000800442420070004070B50446002C09D06F
:10254000606A002540B125616561A56294F851007B
:1025500040B10CE0012070BD6068B0F5827FF4D01E
:10256000E561F2E784F85050204600F03FF8022081
:1025700084F851002068016821F040010160A088C2
:10258000218900F4827001F404410843A18901F417
:1025900000610843217C01F002010843217D01F024
:1025A00001010843218B01F400710843217F01F0F0
:1025B0003801084394F8201001F080010843218D70
:1025C00001F40051084321680860A069042101EA70
:1025D0001040216848602068C16921F40061C16130
:1025E0006565012084F85100002070BD30B585B0CC
:1025F00000240194029403940494006814498842CE
:1026000023D11448816941F480518161816901F4C9
:1026100080510091816941F004018161806900F07D
:1026200004000090A020019002200290032004905A
:10263000094D01A92846FFF72FF940210191029485
:10264000039401A92846FFF727F905B030BD000023
:102650000030014000100240000801402DE9FF4F0A
:1026600081B004460E9E93461F460125FFF71AFAD5
:10267000804694F85100616801280AD0B1F5827F44
:1026800003D1A16809B9042803D0022005B0BDE830
:10269000F08F0298A0B3BBF1000F32D0380030D0D9
:1026A00094F8500001282ED04FF0010A84F850A071
:1026B00094F85100042802D0052084F851004FF00E
:1026C0000009C4F85490C4F838B0E787A787029887
:1026D0002063E786A786C4F84090C4F84490206839
:1026E0000168490603D4016841F040010160E068D7
:1026F000B0F5006F09D06068F0B3012F4DD082E0D3
:10270000FFE70120C2E70220C0E7606808B1012F9F
:102710003CD1206B21680088C860206B801C20633E
:10272000E08E401EE08631E02068816889070DD583
:10273000E18E59B1012D09D1216B0988C160206B4F
:10274000801C2063E08E401EE086002520688168A2
:10275000C9070BD0E18F49B1C068A16B0880A06B9D
:10276000801CA063E08F401EE0870125FFF79AF9E7
:10277000A0EB0800B04200E00FE007D3701C05D0CA
:1027800084F851A084F8509003207FE7E08E002861
:10279000CAD1E08F0028C7D13BE0206B21680078C8
:1027A0000873206B401C2063E08E401EE0862AE008
:1027B0002068816889070DD5E18E59B1012D09D1B5
:1027C000216B09780173206B401C2063E08E401E52
:1027D000E086002520688168C9070BD0E18F49B1E8
:1027E000C068A16B0870A06B401CA063E08F401E06
:1027F000E0870125FFF756F9A0EB0800B04201D3AE
:10280000701C12D18EB1E08E0028D1D1E08F00284B
:10281000CED142463146204600F0DEFE58B120209F
:10282000606584F85090012030E784F851A084F866
:10283000509003202AE7A06818B92068C168806812
:10284000009084F851A084F85090606D08B1012088
:102850001CE700201AE710B5401EB0F1807F01D3BD
:10286000012010BD4FF0E02460610F21601701F0DE
:102870000CFB0020A06107202061002010BD00009B
:1028800070B590F83C20012A25D0012680F83C60E4
:10289000022280F83D2002685468936824F0700595
:1028A0000C682C4354600D4C0268A24208D0B2F16F
:1028B000804F05D00A4CA24202D00A4CA24204D159
:1028C00023F080034968194391603C304670002131
:1028D0000170002070BD022070BD0000002C01407E
:1028E000000400400008004000B585B000210191BF
:1028F00002910391049100680B49884212D10B4860
:10290000816941F008018161806900F00800009050
:102910004FF48070019002200290049001A90448B5
:10292000FEF7BAFF05B000BD0008004000100240ED
:10293000000C014070B504460D46002694F83C009A
:1029400001280FD0012084F83C006AB1042A1FD06E
:10295000082A32D00C2A44D00126002084F83C00FA
:10296000304670BD022070BD2946206800F04CFF43
:102970002068816941F0080181612068816921F046
:1029800004018161206881692A6911438161E4E75A
:102990002946206800F068FF2068816941F40061E1
:1029A00081612068816921F4806181612068816989
:1029B0002A6941EA02218161CFE72946206800F0B7
:1029C00085FF2068C16941F00801C1612068C169C3
:1029D00021F00401C1612068C1692A691143C16104
:1029E000BBE72946206800F0A1FF2068C16941F4D7
:1029F0000061C1612068C16921F48061C161206802
:102A0000C1692A6941EA0221C161A6E710B50446FD
:102A1000002C03D094F83D0010B107E0012010BD58
:102A2000002084F83C00204600F016F8022084F8CC
:102A30003D00211D206800F09DFE01203D346072A4
:102A40006070A070E07020716071A071E071207200
:102A50002070002010BD000008B5006806498842BB
:102A600008D10648C16941F00401C161C06900F0A4
:102A70000400009008BD0000000800400010024063
:102A800010B50446002909D004290AD008290BD022
:102A900094F8410001280AD0012010BD94F83E00AE
:102AA000F8E794F83F00F5E794F84000F2E70220D9
:102AB00039B3042928D0082929D084F841000122FB
:102AC000206800F093FE16492068884203D1426CCA
:102AD00042F4004242642068884208D0B0F1804F3E
:102AE00005D01049884202D00F49884212D181682E
:102AF00001F00701062911D0016841F001010160D0
:102B00000CE084F83E00DAE784F83F00D7E784F869
:102B10004000D4E7016841F001010160002010BDD0
:102B2000002C01400004004000080040704770473E
:102B30007047000070B5044620680C3050E8001F54
:102B400021F4907140E80012002AF5D12068143079
:102B500050E8001F21F0010140E80012002AF5D1E1
:102B6000206B012809D120680C3050E8001F21F0AB
:102B7000100140E80012002AF5D1206840694FF0AA
:102B8000000340064FF020051DD52068143050E8A2
:102B9000001F21F0400140E80012002AF5D1E06B4F
:102BA00048B10D494163E06BFEF7EAFC90B1E06B80
:102BB000416B88470EE0E38584F842502363616EE1
:102BC0002046884706E0E38584F842502363616E1F
:102BD00020468847002070BD6B3A0008704710B54A
:102BE000044620684069C0F3C01094F841102129C0
:102BF00011D180B12068143050E8001F21F080010D
:102C000040E80012002AF5D1A06B08B1FEF794FC51
:102C1000204600F089FF20684069C0F3801094F8D6
:102C20004210222911D180B12068143050E8001FD1
:102C300021F0400140E80012002AF5D1E06B08B114
:102C4000FEF77AFC204600F03BFF002010BD7047E5
:102C5000F8B5044622681068D168536900F00F0681
:102C6000002E08D1850606D58D0604D52046BDE880
:102C7000F84000F08DBF0025002E6AD003F0010659
:102C800001F49077374364D0C20705D0CA0503D555
:102C9000626C42F001026264420705D5DA0703D094
:102CA000626C42F002026264820705D5DA0703D043
:102CB000626C42F004026264020707D501F0200250
:102CC000324303D0626C42F008026264626C002AF4
:102CD0003ED0800604D5880602D5204600F058FF75
:102CE00020684069C0F38010616C090700D458B3B4
:102CF000204600F0E5FE2068406940061ED52068A9
:102D0000143050E8001F21F0400140E80012002A72
:102D1000F5D1E06B60B15D494163E06BFEF730FCDB
:102D2000002815D0E06B416B01B0BDE8F0400847CA
:102D3000A16D01B02046BDE8F0400847A16D01B08B
:102D40002046BDE8F0400847A16D204688476564ED
:102D5000F8BD236B012B7DD1C3067BD5CB0679D57E
:102D600010685068009050694FF0200340064FF003
:102D7000020645D5E16B0868406880B20028E7D0BC
:102D8000A28D8242E4D9E085886920282DD0206870
:102D90000C3050E8001F21F4807140E80012002A36
:102DA000F5D12068143050E8001F21F0010140E8FF
:102DB0000012002AF5D12068143050E8001F21F0DD
:102DC000400140E80012002AF5D184F84230256322
:102DD00020680C3050E8001F21F0100140E800127C
:102DE000002AF5D1E06BFEF7A7FB6663A08DE18DAD
:102DF000E26E401A81B201B02046BDE8F0401047B3
:102E0000A08DE18D401A81B2E08D0028A0D000296C
:102E10009ED020680C3050E8002F22F4907240E8D9
:102E20000027002FF5D12068143050E8002F22F041
:102E3000010240E80027002FF5D184F842302563D5
:102E400020680C3050E8002F22F0100240E80023E8
:102E5000002B00E007E0F3D16663E26E01B020468C
:102E6000BDE8F0401047020606D50A0604D5204604
:102E7000BDE8F84000F0B2BF40067FF569AF4806F4
:102E8000FBD52046BDE8F84000F041BE753900088A
:102E900070B50446002C04D094F84100002510B110
:102EA0000DE0012070BD84F84050204600F04AFE3D
:102EB000206F08B913482067216F204688472420D7
:102EC00084F841002068C16821F40051C1602046A7
:102ED00000F0C2FE2068016921F490410161206880
:102EE000416921F02A0141612068C16841F4005123
:102EF000C1606564202084F8410084F84200656365
:102F0000002070BD092F00082DE9F04186B004466D
:102F100000250295039504950595DFF898C1216871
:102F2000654802220323654E80274FF4806861457F
:102F300051D1816941F480418161816901F480410D
:102F40000191816941F004018161806900F0040010
:102F50000190100202900392059302A93046FEF7F9
:102F60009BFCCDF808800395049502A93046FEF736
:102F700093FC544E524830607560B560F76035611F
:102F80007561B561F5613046FEF7FAFB08B1FEF7F1
:102F900044F8E66374624A484A4E14384436306056
:102FA00010207060B560F76035617561B561F561DD
:102FB0003046FEF7E5FB08B1FEF72FF8A663746212
:102FC000002205212520FEF7EDFE2520FEF7DCFE80
:102FD00006B0BDE8F081DFF8F0C0614528D1C169D5
:102FE00041F40031C161C16901F40031019181698D
:102FF00041F004018161806900F004000190042027
:1030000002900392059302A93046FEF745FC082181
:1030100002910395049502A93046FEF73DFC00227B
:1030200005212620FEF7BEFE2620FEF7ADFECFE7E7
:10303000264EB142CCD1C16941F48021C161C16940
:1030400001F480210191816941F008018161806969
:1030500000F008000190CDF80880039205931C4E03
:1030600002A93046FEF718FCF0140290039504956F
:1030700002A93046FEF710FC1148124E2838883657
:1030800030607560B560F76035617561B561F56197
:103090003046FEF775FB08B1FDF7BFFFE6637462CB
:1030A000002205212720FEF77DFE2720FEF76CFE7B
:1030B0008EE7000000380140001002400008014087
:1030C00058000240700300200044004000480040C7
:1030D000000C014090F84230202B01D002207047B4
:1030E00021B11AB10023036300F012BE0120704722
:1030F00090F84230202B01D00220704721B11AB144
:103100000023036300F04EBE0120704710B5006835
:103110000C49884214D10C4801780C4802F01FFF7A
:103120000A4950B191F83900002809D1BDE8104092
:10313000012205490648FFF7DBBF012081F839006D
:1031400010BD0000004400403000002000050020B9
:10315000800200207047000037B5044694F8410013
:10316000202801D002203EBD019959B352B32162FB
:10317000A284E28400206064212384F84130A56B9E
:10318000114BAB62A56B114BEB62A56B104B2B6324
:10319000A36B586320681346001DA56B02462846A2
:1031A000FEF720FB21686FF04000086020681430B3
:1031B00050E8001F41F0800140E80012002AF5D1DC
:1031C00000203EBD01203EBD7D3A0008BB3A00080C
:1031D0008139000800680549884206D10448002169
:1031E00080F84111D0F8701108477047003801404D
:1031F000AC2700207047FEE73EB500210091019109
:1032000002911748154A0260921582600173017598
:103210004FF46022C261416002240461FEF702F8AB
:1032200008B1FDF7FAFE0D20009001200190042066
:10323000029069460A48FDF76DFF08B1FDF7EDFE03
:103240001120009001940720029069460448FDF780
:1032500061FF002801D0FDF7E0FE3EBD00240140E3
:103260005C00002010B50749054808600846FEF7D5
:103270003DF9002803D0BDE81040FDF7CEBE10BDDB
:10328000003002400400002008B51948416941F0AF
:1032900001014161406900F00100009000221146E7
:1032A0000B20FEF77FFD0B20FEF76EFD002211467E
:1032B0000D20FEF777FD0D20FEF766FD002211467A
:1032C0000E20FEF76FFD0E20FEF75EFD0022114678
:1032D0000F20FEF767FD0F20FEF756FD0022114676
:1032E0001120FEF75FFDBDE808401120FEF74CBD40
:1032F000001002402DE9F04186B0002402940394AE
:10330000049405943A48816941F020018161816902
:1033100001F020010191816941F010018161816911
:1033200001F010010191816941F00401816181691D
:1033300001F004010191816941F008018161806916
:1033400000F0080001902B4F012202213846FEF7C1
:10335000A2FBDFF8A48001224FF442414046FEF771
:103360009AFB002230214046FEF795FB022502958C
:103370000126039604940320059002A93846FEF71F
:103380008BFA4CF23000029003960494059502A942
:103390004046FEF781FA04200290184F03970495E7
:1033A00002A91748FEF778FA0820029003970494C0
:1033B00002A94046FEF770FA28020290039604968E
:1033C000059502A94046FEF767FA00220121082070
:1033D000FEF7E8FC0820FEF7D7FC002201210920B7
:1033E000FEF7E0FC0920FEF7CFFC06B0BDE8F08157
:1033F0000010024000080140000C014000001110C4
:103400000014014010B50D480B4901600C494160A2
:1034100000218160C1604FF480420261416181619D
:10342000C1610162FEF744FB002803D0BDE81040F3
:10343000FDF7F3BD10BD000000540040D000002097
:10344000A086010010B510480E4901604FF482714A
:10345000416000218160C160016141614FF40072EF
:1034600082613822C2610162416281620A21C162C5
:10347000FFF762F8002803D0BDE81040FDF7CDBD8E
:1034800010BD0000003001406801002010B58AB076
:103490000024089409941C2101A8FCF77CFE17481D
:1034A0001549016047214160846041F28731C16064
:1034B000046180218161FFF7A9FA08B1FDF7ADFD34
:1034C0000894099408A90D48FFF7DAF908B1FDF747
:1034D000A4FD60200190029403940594082201A9A0
:1034E0000648FFF727FA08B1FDF797FD0348FFF7F5
:1034F000FBF90AB010BD000000080040C001002028
:1035000010B50C480A4901600B49416000218160F7
:10351000C16001610C2242618161C161FFF7B8FCA9
:10352000002803D0BDE81040FDF777BD10BD0000B6
:10353000003801400802002040420F0010B50C483E
:103540000A4901604FF4E131416000218160C160AE
:1035500001610C2242618161C161FFF799FC002881
:1035600003D0BDE81040FDF758BD10BD0044004039
:103570008002002010B50C480A4901604FF4165132
:10358000416000218160C16001610C224261816162
:10359000C161FFF77DFC002803D0BDE81040FDF7B6
:1035A0003CBD10BD00480040F8020020FEE7FEE7E9
:1035B0007047000008B507494FF4FA520968B1FB9B
:1035C000F2F14143009100BF0098411E0091FAD2F0
:1035D00008BD000018000020F8B504460E46154648
:1035E0003346012202212046009500F017F828B149
:1035F000606D40F0200060650320F8BD3346002276
:1036000080212046009500F009F828B1606D40F057
:10361000200060650320F8BD0020F8BD2DE9F843C7
:1036200004460F4691461E46089DFEF73BFA401B96
:10363000351AFEF737FA804626480068C0F3CB30CB
:10364000684300903AE0701C38D0FEF72BFAA0EBEC
:103650000800A84203D215B1009858B32BE02068A7
:10366000416821F0E00141606068B0F5827F0BD1D4
:10367000A068B0F5004F02D0B0F5806F04D120688B
:10368000016821F040010160A06AB0F5005F09D136
:103690002068016821F4005101602068016841F44C
:1036A0000051016001205034607000202070032020
:1036B000BDE8F88300250098401E009020688068CF
:1036C00037EA000004D000204845BCD10020EFE7D5
:1036D0000120F9E7180000207047000010B5FEF740
:1036E000F9FA01F0D1F902480168491C016010BDE6
:1036F0000000002030B593B0282109A8FCF74BFD4D
:10370000142104A8FCF747FD0024009401940294BE
:1037100003940121099108040A9042000B920D9133
:103720000225109511904FF4E010129009A8FEF7B1
:1037300041FD08B1FDF771FC0F200490059506943A
:103740004FF4806007900894022104A8FEF738FC2B
:1037500008B1FDF762FC00954FF400400290684606
:10376000FEF7A8FB002801D0FDF757FC13B030BDD1
:1037700070470000F0B50268194C1A4D1A4E4FF010
:103780008047A04205D0B84203D0A84201D0B04241
:1037900003D122F070034A681A43A04205D0B84210
:1037A00003D0A84201D0B04203D122F44073CA68CA
:1037B0001A434B6922F080021A4302608A68C2628F
:1037C0000A688262A04201D1096901630121416155
:1037D0000169C90703D0016921F001010161F0BD50
:1037E000002C0140000400400008004010B501F02A
:1037F0001F0101238B40046A9C430462036A8A40D0
:103800001343036210BD000030B5026A036A23F05F
:10381000010303624368846924F0700424F0030503
:103820000C682C4322F002058A682A430D4DA842F9
:1038300006D122F00802CD6845EA020525F004020F
:1038400009D123F4807323F400734D6945EA03051D
:103850008B6943EA050343608461496841630262FE
:1038600030BD0000002C014030B5036A026A22F02E
:10387000100202624268846924F4E04424F4407433
:103880000D6844EA052423F020038D6843EA0513FC
:103890000D4DA84206D123F08003CD6843EA0513FD
:1038A00023F0400309D122F4806222F400624D69C2
:1038B00042EA85028D6942EA850242608461496874
:1038C0008163036230BD0000002C014030B5026A04
:1038D000036A23F4807303624368C46924F07004AC
:1038E00024F003050C682C4322F400728D6842EA30
:1038F00005220D4DA84206D122F40062CD6842EAAD
:10390000052222F4806209D123F4805323F400536A
:103910004D6943EA05138D6943EA05134360C461A9
:103920004968C163026230BD002C014030B5036AB2
:10393000026A22F4805202624268C46924F4E044BC
:1039400024F440740D6844EA052423F400538D6880
:1039500043EA0533064DA84204D122F480424D6962
:1039600042EA85124260C46149680164036230BD65
:10397000002C0140406A0021C185C184816D084747
:1039800070B5446A20684069C0F3C01094F84110D3
:103990000025212904D118B1E584204600F0C4F89F
:1039A00020684069C0F3801094F84210222904D1A5
:1039B00018B1E585204600F083F8606C40F01000F7
:1039C00060642046A16DBDE87040084730B40146F0
:1039D000486A096809684FF0000389062ED4C38538
:1039E00001680C3151E8002F22F4807241E8002474
:1039F000002CF5D10168143151E8002F22F00102AA
:103A000041E80024002CF5D10168143151E8002F61
:103A100022F0400241E80024002CF5D1202180F85A
:103A20004210016B012909D101680C3151E8002FC6
:103A300022F0100241E80024002CF5D14363016B11
:103A4000012902D0416D30BC0847818DC26E30BC67
:103A50001047406A01214163016B012901D0016DCA
:103A60000847818DC26E49081047406A0021C18510
:103A7000202280F842200163416E08470146486ACF
:103A800009680968890616D40021C18401681431C7
:103A900051E8002F22F0800241E80023002BF5D1ED
:103AA00001680C3151E8002F42F0400241E8002348
:103AB000002BF5D17047C16C0847406A816C0847FC
:103AC00001680C3151E8002F22F4907241E8002384
:103AD000002BF5D10168143151E8002F22F00102CA
:103AE00041E80023002BF5D1016B012909D10168C0
:103AF0000C3151E8002F22F0100241E80023002B86
:103B0000F5D1202180F8421000210163704710B5E3
:103B10000168CA6822F04002CA60202180F8411082
:103B2000C16C8847002010BD01680C3151E8002F9E
:103B300022F0C00241E80023002BF5D1202180F8BB
:103B400041107047094981640949C1640949016507
:103B500009494165094981650949C1650949016604
:103B6000094941660949C16670470000F5310008FE
:103B7000D5310008553100080D3100084F2C0008E0
:103B80002F2B0008DD2B0008312B00082D2B0008FF
:103B900008B590F84210222901D0022008BD8268A1
:103BA0004FF480539A4201D1016921B1816A9A424E
:103BB0001DD052B10BE0816A02685268C2F308025C
:103BC0000A80816A891C816209E002697AB102680F
:103BD000526802F07F020A70816A491C8162C18DBD
:103BE000491E0904090CC18505D0002008BD0268E2
:103BF00052680A70F0E70168CA6822F02002CA60C1
:103C00000168CA6822F48072CA6001684A6922F0B9
:103C100001024A61202180F8421000214163026BB9
:103C2000012A03D0416D8847002008BD0163016867
:103C30000C3151E8002F22F0100241E80023002B44
:103C4000F5D101680A68D20602D50A684968009170
:103C5000C26E818D9047E7E770B504462068016920
:103C6000E26821F4405111430161A16820690143D8
:103C7000606901432068C26841F20C639A430A43B9
:103C8000C26020684169A26921F440711143416119
:103C90001E492068884202D1FEF752FA01E0FEF781
:103CA0003FFA00EBC00101EB00106168642289005B
:103CB000B0FBF1F3B3FBF2F36FF018067343B0FB04
:103CC000F1F5B0FBF1F605EB8305322303EB0515A7
:103CD000B5FBF2F5B6FBF2F605F0F00505EB0615BF
:103CE000B0FBF1F6B0FBF1F0B0FBF2F06FF01801B1
:103CF000484306EB800003EB0010B0FBF2F02168B4
:103D000000F00F002844886070BD000000380140BA
:103D100037B582B004461346039AA262A3850020F9
:103D20006064222184F84210E56B1B49A962E56BAF
:103D30001A49E962E56B1A492963E16B4863216816
:103D4000E06B091DFDF74EFD206801684068019099
:103D5000206948B120680C3050E8001F41F48071A0
:103D600040E80012002AF5D12068143050E8001F06
:103D700041F0010140E80012002AF5D1206814301A
:103D800050E8001F41F0400140E80012002AF5D140
:103D900005B0002030BD0000CD390008533A0008BE
:103DA0008139000881628285C28500214164222117
:103DB00080F842100169002904D00168CA6842F401
:103DC0008072CA6001684A6942F001024A61006873
:103DD000C16841F02001C1600020704790F8411097
:103DE000212901D0022070478168B1F5805F01D19F
:103DF000016961B1016A4A1C026202680978516076
:103E0000C18C491E0904090CC1840AD013E0016A5F
:103E100002680988C1F308015160016A891C0162C6
:103E2000EEE70168CA6822F08002CA600068C168D3
:103E300041F04001C1600020704700000148FEF7DA
:103E400007BF0000080200200148FEF701BF000084
:103E5000800200200148FEF7FBBE0000F8020020AF
:103E6000FEE7490050EAC12018BF04204A0D18BFE0
:103E700040F0010040F2FF72B2EB515F08BF40F02A
:103E80000200012808BF052070470907090E002815
:103E900004DB00F1E02080F80014704700F00F0010
:103EA00000F1E02080F8141D704700002DE9F74F65
:103EB000144694B00021C4E902111599079121F02C
:103EC0000045C9498D4206DC1599C4E9000117B0C7
:103ED0000020BDE8F08FC549DFF814A3A9423CDDFE
:103EE0000799C44E0029C44FC44A1599534619DD99
:103EF000FCF7D2FA554506D0C14AC24BFCF7CCFAC2
:103F0000C4E900010AE04FF0D352BE4BFCF7C4FAFB
:103F100032463B46FCF7C0FAC4E9000117B0012065
:103F2000BDE8F08FFCF717FA554506D0B44AB54BFB
:103F3000FCF711FAC4E900010AE04FF0D352B14B8B
:103F4000FCF709FA32463B46FCF705FAC4E90001E2
:103F500017B04FF0FF30BDE8F08FAB49A94215997B
:103F600078DB21F0004183468846A84AA84BFCF73D
:103F700099FA0022A74BFCF7EEF9FCF76EFD0990C9
:103F8000FCF74DFD06460F469C4A5346FCF78AFA5D
:103F900043465A46FCF783FA80468A46984A994B2C
:103FA00030463946FCF77EFA2A0D01250B9242462F
:103FB0005346FCF774FA032DC4E9000139D00B987D
:103FC000C1F30A51401A05EB45111139814230DA2B
:103FD0009148C346784400EB0510CDF80CA00C9036
:103FE000D0E9002330463946FCF75CFA02460B461E
:103FF0000491069058460399FCF74EFA80468A468B
:1040000002460B4658460399FCF746FA049B069A6B
:10401000FCF742FA83460C9803913946D0E9022313
:104020003046FCF73FFA5A46039BFCF735FA6D1C05
:10403000BDE707980028A2BF099817B0BDE8F08F28
:10404000616881F000416160099817B04042BDE8A5
:10405000F08FFFE784461598C1F31301C0F30A50AF
:10406000A0F2F5304FEA601800F01F06C6F12000FC
:10407000139000200690079041F4801E05206D46A5
:1040800076B1664A08EB00017A4452F8213002EB1F
:104090008101B3404A68139922FA01F1194305E0FE
:1040A0005F4908EB0002794451F82210A1FB0E276A
:1040B000A1FB0C131A449A4234BF0123002303EBE3
:1040C000070A05EB8003D3E901B70F448F4234BFE1
:1040D0000121002193448B4411B1934502D903E09F
:1040E000934501D2012100E00021C3E901B7514409
:1040F00045F82010011EA0F10100C1DC0298059FC7
:1041000000F10050800F12900298DDE90356800004
:10411000FCF785FC834628460D91FCF791FC6FF077
:104120001D02FCF765FCCDE90E013046FCF788FC6A
:104130006FF03D02FCF75CFC80468A463846FCF78F
:104140007FFC6FF05D02FCF753FC07464246534686
:104150001191FCF700F9DDE90E23FCF7FCF85A4653
:104160000D9BFCF7F8F800250E465A4628460D9B95
:10417000FCF792F9DDE90E23FCF78EF9424653462F
:10418000FCF78AF93A46119BFCF789F9DFF898A009
:10419000244A5346FCF786F907468846234A244BAF
:1041A00031462846FCF77EF93A464346FCF7D3F8F9
:1041B000074688464FF0A842534631462846FCF74A
:1041C00071F93A464346FCF7C6F8159A12F0004FCB
:1041D00004D0129A81F0004152421292C4E90001C7
:1041E000129817B0BDE8F08FFB21E93F7CD902405F
:1041F000FB21F93F7370032E8A19A33B0000405442
:104200003163621A61B4D03DFB21394183C8C96D65
:10421000305FE43F0000E03FF82B0000742B00000B
:10422000562B0000182D4454FB21F93D3326A611CE
:10423000460B113C2DE9FF4D21F0004807460C4686
:10424000B8F1795F08DAFCF708FC002801BF00200C
:10425000324904B0BDE8F08D3A462346104619466F
:10426000FCF720F9054602462D480E460B4606216E
:10427000784400F05DF82A463346FCF713F9DDE98F
:10428000022382468B4638462146FCF70BF904464A
:104290000F4652465B4628463146FCF703F9224654
:1042A0003B46FCF7F9F807468A464FF0FF322846AE
:1042B0003146FCF79DFB1B4A90450ADA3A465346C5
:1042C000FCF7EAF804B00022BDE8F04D134BFCF710
:1042D000E6B8154A4245A8BFA8F500154FF00004FE
:1042E000B8BF124D22462B46FCF7D6F80646884644
:1042F00022462B4600200949FCF7CEF804460D461D
:104300003A46534630464146FCF7C6F804B02246CA
:104310002B46BDE8F04DFCF7C2B800000000F03FAE
:10432000242900003333D33F0000E93F0000D23F8F
:104330002DE9F0414F1E00EBC7010446D1E9000111
:1043400015461E4637F006020DD02A463346FCF7C6
:10435000A9F87F1E04EBC703D3E90023FBF7FBFF9B
:1043600037F00602F1D1022F25D0042F13D0062FEB
:1043700018BFBDE8F0812A463346FCF793F8D4E92C
:104380000A23FBF7E8FF2A463346FCF78BF8D4E90B
:104390000823FBF7E0FF2A463346FCF783F8D4E90D
:1043A0000623FBF7D8FF2A463346FCF77BF8D4E90F
:1043B0000423FBF7D0FF2A463346FCF773F8D4E911
:1043C0000223FBF7C8FF2A463346FCF76BF8D4E913
:1043D0000023BDE8F041FBF7BEBF00002DE9FF4D13
:1043E000054621F0004084B00C46B0F1795F0BDA4D
:1043F0002846FFF736FD042808BF00F071F828466C
:1044000008B02146BDE8F08D2A460B461046FCF761
:1044100049F806460F462A462346FCF743F88046ED
:1044200026488A4632463B4605217844FFF780FFFE
:1044300083461098029160B3214A224B4046514670
:10444000FCF730F8CDE900015A4640465146029B40
:10445000FCF728F882468846DDE906014FF0FF3276
:10446000FCF7C6FA52464346FCF716F832463B467E
:10447000FCF718F8DDE90623FCF70EF8DDE9002368
:10448000FCF70AF808B02A462346BDE8F04DFCF7D1
:1044900006B80B465A4630463946FCF703F8084A38
:1044A000084BFBF758FF42465346FBF7FBFF08B0AB
:1044B0002A462346BDE8F04DFBF74DBF6A280000B1
:1044C000495555555555C5BF0122FCF791BAFBF723
:1044D00042BF0022134610461146FCF707BA0000FF
:1044E000024A00201107FCF783BA000001FDFFFF1C
:1044F00002E008C8121F08C1002AFAD170477047AD
:10450000002001E001C1121F002AFBD1704700000A
:1045100001490860704700005800002070B5084845
:10452000FF210546FBF737FE4FF40054204602F00A
:104530003FF829462046BDE87040FF2202F0D2B87D
:10454000B82900202DE9F84F04460D4621F000401F
:1045500000917349814211DC7249884201DC06D125
:104560002CB120462946BDE8F84FFFF7ADBF6E4895
:10457000002DCCBF6D496E49BDE8F88F6D49814271
:1045800011DD6D498142D8BF4FF0FF366DDD204609
:104590002946FFF766FC042808BFFFF7A1FF204665
:1045A0002946BDE8F88F6549654F25F000458142F1
:1045B00033DD6449814219DD002632464FF08043E5
:1045C00020462946FBF7C7FE80468A460122204640
:1045D0002946FCF70DFA00223B46FBF75DFF4246F9
:1045E0005346FCF783F904460D463EE001260022BF
:1045F000BA463B4620462946FBF7ADFE80460F46AD
:104600000022534620462946FBF746FF42463B46DA
:10461000FCF76CF904460D4627E04B4981421BDD4F
:10462000DFF828A102260022534620462946FBF740
:1046300039FF00223B46FBF78EFE80460F460022E4
:10464000534620462946FBF727FF42463B46FCF7E8
:104650004DF904460D4608E0032622462B4600206D
:104660003B49FCF743F904460D4622462B461046CB
:104670001946FBF717FF8B46824602460B46FBF7AF
:1046800011FF07460246334888460B460621784408
:10469000FFF74EFE52465B46FBF704FF82462E486C
:1046A0008B463A46434605217844FFF741FE3A4699
:1046B0004346FBF7F7FE02460B46002E504659468E
:1046C0000CDAFBF748FE22462B46FBF7EBFE01B067
:1046D00022462B46BDE8F04FFBF7E1BEFBF73BFE61
:1046E00022462B46FBF7DEFE1C4A7A4402EBC60349
:1046F000D3E90023FBF7D0FE22462B46FBF7CCFE86
:10470000174A7A4402EBC603D3E90023FBF7C7FE3E
:10471000009A002AB8BF81F00041BDE8F88F000080
:10472000000010440000F07F182D4454FB21F93F95
:10473000FB21F9BF0000DC3F0000203E0000F33FFA
:104740000000F03F0000E63F008003400000F83F1B
:104750000000F0BFD62400009424000032240000A2
:10476000FA2300002DE9F04D9446CCF1000423F02B
:1047700000464CEA0404594F46EAD4749A468846E7
:1047800021F00042BC4206D8454240EA050442EA14
:10479000D474BC4204D9BDE8F04D6246FFF797BE21
:1047A000AAF14055A5F17F6555EA0C040BD002240F
:1047B00004EAAA744A4DDFF82CE144EAD87452EABC
:1047C000000B04D00CE0BDE8F04DFFF7BBBE002CA1
:1047D00014BF012CBDE8F08D022C30D0032C32D058
:1047E00056EA0C0B0AD0BE4220D1BA4209D126F0BB
:1047F000804622F080423346114617E000291ADB3A
:1048000025E0DFF8E4B0FB44002C04BFDBE9000145
:10481000BDE8F08D012C02BFDBE9000181F0004111
:10482000BDE8F08D022C0AD0032C0CD0BA4212D174
:10483000B8F1000F0BDA2A482C49BDE8F08D284664
:104840002B49BDE8F08D28467146BDE8F08D24481F
:104850002849BDE8F08D921B12153C2AC4BF204F99
:10486000244E10DCBAF1000FBEBF12F13C0F00273E
:104870003E4608DB6246FCF739F821F00041FFF7BD
:1048800061FE07460E4694B1012C08BF86F0004633
:104890000DD0194A194B022C3846314615D0FBF77A
:1048A000FBFD2A46BDE8F04D114BFBF7F5BD00229C
:1048B000134638463146FBF7EDFE04BF0220FFF7F2
:1048C00027FE38463146BDE8F08DFBF7E5FD2A4668
:1048D000BDE8F04D064BFBF7E2BD00000000F07FA5
:1048E000182D4454FB2109C0BE230000FB21F9BF51
:1048F000FB210940FB21F93F075C143326A6A13CAC
:104900002DE9F041FDF7CEF804462B4EB068201A91
:104910000A2846D3B46006F11400058840880027B1
:1049200030B3A0F57061FF3922D0FBF76EFE8046F0
:104930002846FBF76AFE4146FBF7CFFC1F49FBF711
:104940009AFC1F49FBF797FC1E49884200DD7068FE
:10495000756815F0FF4F1AD01B49FBF78CFC804699
:104960001A492846FBF787FC4146FBF72CFC706090
:104970003088FBF74AFE7168FBF7CAFE09D214497A
:104980007068884205DD3069401C306102E070606B
:10499000EEE737613069B0F57A7F02DB01F0FAFDAE
:1049A0003761F068201A642804D3F460BDE8F04150
:1049B00001F08AB9BDE8F081400000200000964473
:1049C0000000304100409C460AD7233CA4707D3F44
:1049D0000020994510B50948FCF722FB08B1FCF707
:1049E0001CFB022206490548FCF7F0FC002803D016
:1049F000BDE81040FCF711BB10BD00005C000020BA
:104A00005400002010B5029C01628261C361002C39
:104A100000D1641E4462012180F82810002010BDDE
:104A2000FDF740B87CB50C4600788DF804008DF891
:104A300005400948022301AAD0F86C510621A84775
:104A4000202C08D101200090044864231A46046BEE
:104A50004FF4FA61A0477CBDAC2700202429002038
:104A6000002101718160C160016141614FF4C87131
:104A700081614FF4FA61C1618910016201494162AB
:104A800070470000254A000810B5054C0521206834
:104A900000F022F86068BDE81040052100F01CB865
:104AA0002800002010B50068012803D0022808D093
:104AB000002010BD04210648FCF7E6FF80F001004D
:104AC00010BD08210348FCF7DFFF80F0010010BD96
:104AD00000140140000C014070B5044660690844B0
:104AE0006061A16A204688470146A068884201D0DB
:104AF000A16070BDE168814204D12179012901D012
:104B00000229F6D1E0602179002571B1012935D063
:104B10000229EED188B3216A60698842E9D9626AC4
:104B2000042120469047656170BDE0B1626A0121B1
:104B300020469047D4E90501884210D2206970B11F
:104B4000401C2061022803D1626A40212046904720
:104B50002069032803D1626A80212046904765615D
:104B60000120207170BDD4E905018842FAD920697D
:104B70000028F7D02561656170BD1AE058B1E16980
:104B800060698842F8D9626A0221204690476561CF
:104B900002202071F0E7626A102120469047626A85
:104BA000202120469047206900B90120206125710D
:104BB000E2E7626A0821204690472561A069401C0F
:104BC00060612571D8E700002DE9F0470024114D00
:104BD000114E4FF4967740F2DC584FF4C87955F8EF
:104BE0002400FFF73DFF55F82410601C086055F8BD
:104BF0002400866255F82400876155F82400C0F827
:104C00001C8055F82400C0F82090641C022CE6DBC0
:104C1000BDE8F08728000020A54A00080022826035
:104C2000C260C26202618261C261426280F8282071
:104C30004261044A0263044A42630A688263496823
:104C4000C1637047054A0008455A00081CB5082191
:104C50000548FDF715FF054803C8CDE90001694681
:104C60000348FFF7DBFF1CBDC0010020F46700080C
:104C700024290020014908807047000040000020DE
:104C800010B50022054C03E010F8013B5340E25CF4
:104C9000491E89B2F8D2104610BD0000FF69000815
:104CA00070B506460D46144629463046FBF726FDEC
:104CB00001D2284670BD21463046FBF729FD01D2BE
:104CC000204670BD304670BD70B50646C81CF070F9
:104CD000304600230222C478A41C03E0855C2B44E8
:104CE0009BB2521C9442F9DCDA43701842710021E5
:104CF000817170BD70B504460D46164615212046DB
:104D0000FBF749FA552020706070A570267170BDC0
:104D100000B5244B21F0004287B09A42DCBF00224C
:104D2000134629DD204B9A4208D140B94FF00100CB
:104D3000FFF7EEFBFFF7CDFB07B000BD03DBFFF78E
:104D4000C3FB07B000BD02AAFFF7B0F810F00301E3
:104D500004BF0DF1080C9CE80F000DD001200129C3
:104D60000ED0022914D00DF1080C00909CE80F0021
:104D7000FFF734FB07B000BDFFF75CFA07B000BDDA
:104D80000DF1080C00909CE80F00FFF727FB05E0F1
:104D90000DF1080C9CE80F00FFF74CFA07B081F00A
:104DA000004100BDFB21E93F0000F07F30B5026803
:104DB000022A12D20A4B9C5C7CB10A4C02EB4202E2
:104DC00004EB8202D2E900459268C1E900458A609D
:104DD000006800211954002030BD4FF0FF3030BD75
:104DE00020000020900400200EB500910192ADF843
:104DF0000830C269694690470EBD032101717047B2
:104E00000EB50021009101910291C2696946904757
:104E10000EBD000081F00101CAB2016806480029F8
:104E200004D0012906D1C903FCF735BE4FF4007147
:104E3000FCF731BE70470000000C01402DE9F04145
:104E400004460F46A26904F10C01204690474FF03A
:104E5000000808B984F80480207901260325D8B118
:104E600001282DD0022815D1A0683844A060D4E9CB
:104E70000321114481420DD8401AA060A08A012864
:104E80002BD0226A012120469047A08A58B3401EA9
:104E9000A0822671BDE8F081E06858B1226A012144
:104EA00020469047206918B1C4F808802671F1E7C0
:104EB0002571EFE7226A0021204690472571E9E736
:104EC000A0683844A060E1688842E3D3226A0021E8
:104ED0002046904702202071DCE7226A002120460C
:104EE00090472571D6E70020D2E700002DE9F04178
:104EF0000E48FFF782FF0D4C002020600C4E26620A
:104F00000C4FA7610C4DE5612046FFF779FF04F1D6
:104F100024008046FFF771FF012060626664E7634A
:104F200025644046BDE8F041FFF76ABF4804002011
:104F3000154E0008AD4D00081558000870B5FCF777
:104F4000B1FD09494A68861A002E0CD04860002439
:104F5000064D04EBC40005EB80003146FFF76EFF01
:104F6000641C022CF5DB70BD2000002048040020EA
:104F70000CB500281BD0124A0168914217D18169F3
:104F8000D243914213D1416889B1816879B10269F4
:104F90000192C0680090DDE9002090420DD0DDE96B
:104FA0000002904205D9DDE90001411A05E0002028
:104FB0000CBDDDE90020801A091A481E0CBD000056
:104FC000EFBEADDE0CB5002816D0134A0168914241
:104FD00012D18169D24391420ED1416861B1816899
:104FE00051B102690192C0680090DDE90020904251
:104FF00005D14FF000000CBD4FF000000CBD04D9EE
:10500000DDE90010A0EB01000CBDDDE90002A0EB22
:105010000200A1EB00000CBDEFBEADDE70B5044692
:105020000D461646002C0DD065B15EB11C21204600
:10503000FBF7B1F8A660656003482060C043A0613B
:10504000012070BD002070BDEFBEADDEF8B5044696
:1050500016460F46002C40D0224A206890423CD190
:10506000A069D243904238D16068A0B3A06890B3E1
:1050700089B386B32046FFF7A5FFB04200D20646AB
:1050800056B3E0680090A0680099451AB54200D375
:105090003546606800992A4601443846FBF754F8C3
:1050A000009828440090761B2EB17819324661682A
:1050B000FBF74AF80096A0680099884201D80020C2
:1050C00000900098E06063691BB1AA190021204696
:1050D0009847A819F8BD00E001E00020FAE7002099
:1050E000F8E70000EFBEADDEF8B5044616460F4601
:1050F000002C40D0224A206890423CD1A069D24383
:10510000904238D16068A0B3A06890B389B386B3E9
:105110002046FFF72DFFB04200D2064656B3206965
:105120000090A0680099451AB54200D335466068E2
:1051300000992A4608443946FBF706F800982844A7
:105140000090761B2EB1791932466068FAF7FCFFA1
:105150000096A0680099884201D80020009000982D
:10516000206163691BB1AA19012120469847A8193B
:10517000F8BD00E001E00020FAE70020F8E70000B9
:10518000EFBEADDEFCF7AEFDFEF7B4FAFEF7B2F807
:10519000FEF77AF8FEF730F8FEF734F9FEF752F929
:1051A000FEF774F9FEF7ACF9FEF7C8F9FEF7E2F97D
:1051B000FEF758F8FFF79AFEFFF748FD00F0B6FD3E
:1051C000FFF702FD00F068FD40F2DC5000F04CFDFE
:1051D000FFF700FC00F064F900F002F901F02EF98D
:1051E000064CFFF7ABFEFFF78BFB616B034888476C
:1051F00000F0D4FB00F01AF9F3E7000024290020A6
:105200002DE9F04F87B0021D0179012909D002294B
:105210007CD1002706978DF81810C17813290AD081
:1052200099E0C078032871D3B2F8010007B0BDE857
:10523000F04FFFF71FBD041D34F9010FFBF7DCF938
:10524000DFF828814146FBF748F8494A4146FFF715
:1052500027FD0590B4F90200FBF7CEF94146FBF7B4
:105260003CF842464349FFF71BFD8246B4F904006F
:10527000FBF7C2F94146FBF730F83F4A0021FFF740
:105280000FFD0490B4F90600FBF7B6F94146FBF7B1
:1052900024F8DFF8E8903A4D4A462946FFF700FD2A
:1052A0008346B4F90800FBF7A7F94146FBF715F868
:1052B0004A462946FFF7F4FC0646B4F90A00FBF714
:1052C0009BF94146FBF709F84A462946FFF7E8FCF7
:1052D0000546B4F90E00641EFBF78EF94146FAF755
:1052E000FCFF4A460021FFF7DBFC81462946304699
:1052F000FBF70EFA02D230462E460546DFF88480D0
:1053000098F8000018B18DF8197024E02AE0B4F87C
:105310000D00CDE900650290DDE904205B465146B1
:1053200000F010FC8DF81900A8B1012088F80000E9
:1053300088F801001448006834F80D1F1430084440
:10534000C8F80400C8F80890A088A8F80C0040F637
:10535000C410A8F80E000D48022306AAD0F86C412C
:105360000021A04707B0BDE8F08F000000002041F9
:105370000000A041000020C10000C8410000B4426C
:105380000000B4C26429002000000020AC270020E7
:1053900038B5418900910389C28881880148046B2E
:1053A000A04738BD2429002010B504464FF4BC7135
:1053B0002046FAF7F0FE04F5A07400202070A070DB
:1053C00060700448E062044860630448A062002002
:1053D00010BD0000D16400087D580008EF5A000895
:1053E00010B50D4C0D4A01212368A4F5B4709847FF
:1053F00023680B4A0521A4F5B47098472368094A2D
:105400000221A4F5B4709847A4F5B4702368BDE8F0
:105410001040054A0021184714290020195500089A
:1054200049550008915300080152000870B5194C05
:10543000207800280ED0184D28686168401A09D4D9
:105440006078012807D0022811D00025032819D040
:105450002570657070BDA189A06800F053FB2868B5
:10546000A1891430084460600220607070BDE0893A
:1054700000F0FAFB2868E1891430084460600320DA
:10548000607070BD4FF4FA71044800F03BFB25706A
:10549000657070BD64290020000000200000B44247
:1054A00010B54FF4BC711848FAF775FE1648FFF7AF
:1054B0007BFF154C0020F43404F8F40C20651349EC
:1054C000E1671349616501F58061A1654FF4806171
:1054D000E1656066A4F54B70A06648102066A4F5EF
:1054E0009670E06600F11C0121674FF48052094973
:1054F000FFF794FDA4F65C31206FBDE810404FF437
:105500000362FFF78BBD0000AC2700204165000857
:1055100044050020440D002030B4001D0178491ED0
:10552000CCB2022C0BD2401C83884288018804EB49
:10553000C400044C04EB800030BCFFF755BC30BC09
:1055400070470000480400207FB501790022AD4C6F
:10555000122979D00CDC11291BD2DFE801F01A3CAA
:105560001A4F1A5C1A791A971AB0B6BC1A1AD400D4
:1055700032296AD00EDC202968D0222967D024295C
:105580007ED0302905D10389C28841799E4800F038
:105590005CFD7FBD342974D0362973D0382972D090
:1055A0003A29F6D10092051D6A466978964800F0BE
:1055B00086FC03462A78697801A800F027F99DF84F
:1055C00000008DF80700D4F86C41042301AA0521DE
:1055D0008C48A0477FBD051D00240BE004EB440070
:1055E0002844B5F80130B0F805200179864800F06C
:1055F00088FD641CE878A042F0DC7FBD051D002416
:1056000005E028198178804800F0EAFD641C68787C
:10561000A042F6DC7FBD0092051D6A4669787A4893
:1056200000F019FC03462A78697801A800F0EEF82A
:10563000BDF80000ADF80700D4F86C41052301AABD
:1056400019467048A0477FBD63E09EE079E07EE0A8
:105650000092051D6A4669786B4800F04AFC0346D3
:105660002A78697801A800F0D1F8BDF80000ADF8FB
:1056700007000523D4F86C4101AA1946614803E0EC
:105680007EE09AE0A0E0B7E0A047DCE70092051DCD
:105690006A4669785C4800F0F8FB03462A78697826
:1056A00001A800F0B3F89DF800008DF80700D4F8C9
:1056B0006C41042301AA05215248A047C3E7417960
:1056C0000022514800F048FBBDE7417901224E48D5
:1056D00000F042FBB7E7051D6A4669784A4800F0CA
:1056E000A0FB03462A78697801A800F08FF89DF89E
:1056F00000008DF80700D4F86C41042301AA0521AD
:105700004048A0479FE7827941793F4800F0E4FC98
:1057100099E7051D6A4669783B4800F068FB034637
:105720002A78697801A800F071F89DF800008DF8DA
:105730000700D4F86C41042301AA05213148A04791
:1057400081E782794179304800F0B1FC7BE7009233
:10575000051D6A4669782C4800F02FFB03462A781D
:10576000697801A800F052F89DF800008DF8070054
:10577000D4F86C41042301AA05212248A04762E71E
:105780004179214800F04FFC5DE70092051D6A4613
:1057900069781D4800F0F5FA03462A78697801A86F
:1057A00000F034F80098CDF80700D4F86C410723D6
:1057B00001AA05211348A04745E70389C28841791A
:1057C000114800F0DAFC3EE70092051D6A46697850
:1057D0000D4800F0A8FB03462A78697801A800F07C
:1057E00015F80098CDF80700D4F86C41072301AAFA
:1057F00005210448A04726E782794179024800F054
:10580000A2FC20E7AC2700200005002001704270B8
:105810008370704710B50268022A10D2094B02EB60
:10582000420203EB8202D1E900348968C2E9003404
:1058300091600068044A01211154002010BD4FF00E
:10584000FF3010BD900400202000002038B5044631
:1058500005200090616800208847A2680121684601
:105860009047A268012104489047054661680120DD
:105870008847284638BD0000F06700082DE9F0434E
:1058800091B00446D4F86001FFF79CFB01AF4FF0E4
:105890000008661D7AE0402800D94020D4F8603125
:1058A000024601A91846FFF7D1FB8146002567E0B3
:1058B0002078062861D2DFE800F0030B131F293897
:1058C000785DAA2802D00020207058E00120FBE774
:1058D000785D552802D00020207050E00220FBE7C0
:1058E000785D0E2801D2032000E0002020700328FC
:1058F00045D1785DE07042E0785D207120B10420F0
:105900002070C4F844813AE00520F9E7D4F8441146
:10591000785D8855D4F84401401CC4F844012179CD
:1059200088422CDB0520207029E02179785D88559C
:105930002179E01C891CFFF7A3F9C0B22179895DA8
:10594000814212D1E07804EB8000D0F8080160B108
:10595000012332220A211048FFF746FAE07804EBCF
:105960008000D0F80811601C884740F20511601CC7
:10597000FAF711FC84F8008001E084F800806D1CC7
:105980004D4595D3D4F86001FFF71CFB002882D168
:1059900011B0BDE8F08300006C0400202DE9F04157
:1059A000DFF89480D8F83C0000684468FCF77AF887
:1059B0000546224F224E3868844234D1D6F8500131
:1059C000A04230D0786885422FD04046FDF707F9D5
:1059D000D6F85801D6F850110A1B3AB106EB8000F0
:1059E000D0F84811D6F86001FFF77EFBD6F85801D1
:1059F000401C00EBD07121F00101401AC6F858019B
:105A0000B6F8500182B2D6F8580106EB8000D0F803
:105A100048110948FDF75EFBD8F83C000068406873
:105A200038607D6001E03C607D60D6F87411BDE8AF
:105A3000F04103480847000008020020340000201D
:105A4000AC2700202DE9F0410446002694F82800F8
:105A50000127002818D0216A2161A069A060E269AD
:105A6000E260626AE262666184F8286020B1A26B3B
:105A700020469047666104E0A26B002120469047D3
:105A80006761E06B80476060E06A00281BD0E06BD4
:105A9000804705466069C0B1012814D16068E1689B
:105AA000281A88420FD3E06A002801DD401EE06218
:105AB000E06AC8B1A068002805D0A26B2046216921
:105AC000904765606661BDE8F0816068A168281A4A
:105AD0008842F8D3E0680028F5D0A26B0021204668
